S01700004763634170706C69636174696F6E312E737265635B
S11300000C942A000C94E9020C9412030C943B0304
S11300100C9447000C9447000C9408040C94B60309
S11300200C94DF030C948D030C9447000C9447004C
S11300300C9464030C9441040C9447000C946A04DB
S11300400C9447000C9447000C9447000C94470010
S11300500C94470011241FBECFE5D8E0DEBFCDBF0E
S113006010E0A0E6B0E0ECE2FAE002C005900D92E8
S1130070A638B107D9F720E0A6E8B0E001C01D9288
S1130080AA39B207E1F70E942C010C9414050C94D0
S11300900000CF93C82F60E081E00E9444026C2FDF
S11300A082E00E94C90261E082E00E9444028FEC77
S11300B097E00197F1F700C0000060E082E00E9441
S11300C044028FEC97E00197F1F700C00000CF9154
S11300D00895CF93C82F61E081E00E9444026C2F01
S11300E082E00E94C90261E082E00E9444028FEC37
S11300F097E00197F1F700C0000060E082E00E9401
S113010044028FEC97E00197F1F700C00000CF9113
S113011008952FE788E391E0215080409040E1F773
S113012000C0000088E30E9449008CE00E9449005E
S113013081E00E9449008FEC97E00197F1F700C03D
S1130140000086E00E94490008950E946900089515
S11301500F931F93CF938C01C0E003C00E94A500AE
S1130160CF5FF801EC0FF11D80818111F7CFCF91A2
S11301701F910F910895CF92DF92EF92FF921F93F8
S1130180CF93DF93CDB7DEB760970FB6F894DEBF99
S11301900FBECDBF6B017C01611571058105910511
S11301A021F480E30E94A5003BC099235CF4F09401
S11301B0E094D094C094C11CD11CE11CF11C8DE2CC
S11301C00E94A50010E015C0C701B6012AE030E086
S11301D040E050E00E94F504605DE1E0F0E0EC0FE7
S11301E0FD1FE10FF11D60831F5FC22ED32EE42E8D
S11301F0F52EC114D104E104F10431F7FF24FA947B
S1130200F10E0CC0E1E0F0E0EC0FFD1FEF0DF11D6D
S1130210F7FCFA9580810E94A500FA94FF2094F7D8
S113022060960FB6F894DEBF0FBECDBFDF91CF91BD
S11302301F91FF90EF90DF90CF900895811105C03A
S113024080E8860F0E9449000895813021F480ECF3
S1130250860F0E9449000895CF93DF9300D000D009
S1130260CDB7DEB70E94D9020E94890080E690E0F3
S11302700E94A8000E94310419821A821B821C82E7
S1130280CE0101960E94930460E081E00E941E0169
S113029069817A818B819C810E94BB00F1CF982F68
S11302A09695969596958770613009F451C020F023
S11302B0623009F499C008959130B9F028F0923071
S11302C029F19330A1F1089521E030E0A90102C0A1
S11302D0440F551F8A95E2F7CA019AB3982B9ABB2B
S11302E09BB3809589238BBB089521E030E0A9015D
S11302F002C0440F551F8A95E2F7CA0197B3982BA1
S113030097BB98B38095892388BB089521E030E09A
S1130310A90102C0440F551F8A95E2F7CA0194B39C
S1130320982B94BB95B38095892385BB089521E0D0
S113033030E0A90102C0440F551F8A95E2F7CA01B3
S113034091B3982B91BB92B38095892382BB089576
S11303509130B9F028F0923029F19330A1F1089549
S113036021E030E0A90102C0440F551F8A95E2F74D
S1130370CA0180959AB398239ABB9BB389238BBBFC
S1130380089521E030E0A90102C0440F551F8A9569
S1130390E2F7CA01809597B3982397BB98B3892352
S11303A088BB089521E030E0A90102C0440F551F25
S11303B08A95E2F7CA01809594B3982394BB95B3C8
S11303C0892385BB089521E030E0A90102C0440FD0
S11303D0551F8A95E2F7CA01809591B3982391BB82
S11303E092B3892382BB08959130C1F028F09230F2
S11303F039F19330B9F1089521E030E0A90102C048
S1130400440F551F8A95E2F7CA019AB3282F209505
S113041092239ABB9BB3892B8BBB089521E030E0D8
S1130420A90102C0440F551F8A95E2F7CA0197B388
S1130430282F2095922397BB98B3892B88BB0895C6
S113044021E030E0A90102C0440F551F8A95E2F76C
S1130450CA0194B3282F2095922394BB95B3892B7A
S113046085BB089521E030E0A90102C0440F551F67
S11304708A95E2F7CA0191B3282F2095922391BB64
S113048092B3892B82BB0895982F9695969596954D
S113049087706130E1F5913099F028F09230E9F0FD
S11304A0933041F1089521E030E0A90102C0440FE6
S11304B0551F8A95E2F7CA019BB3892B8BBB08951C
S11304C021E030E0A90102C0440F551F8A95E2F7EC
S11304D0CA0198B3892B88BB089521E030E0A901B3
S11304E002C0440F551F8A95E2F7CA0195B3892BC0
S11304F085BB089521E030E0A90102C0440F551FD7
S11305008A95E2F7CA0192B3892B82BB08956111DF
S11305103FC09130A1F028F09230F9F0933059F1B6
S1130520089521E030E0A90102C0440F551F8A95C7
S1130530E2F7CA019BB3809589238BBB089521E020
S113054030E0A90102C0440F551F8A95E2F7CA01A1
S113055098B38095892388BB089521E030E0A901F0
S113056002C0440F551F8A95E2F7CA0195B38095DE
S1130570892385BB089521E030E0A90102C0440F1E
S1130580551F8A95E2F7CA0192B38095892382BBED
S11305900895813041F028F0823039F0833039F009
S11305A008956BBB089568BB089565BB089562BB4D
S11305B00895CF93C0E009C0EC2FF0E0EA59FF4F53
S11305C060818C2F0E944F01CF5FC032A8F3CF917E
S11305D008951F920F920FB60F9211242F933F93F9
S11305E04F935F936F937F938F939F93AF93BF9337
S11305F0EF93FF93E0918A00F0918B00309709F01C
S11306000995FF91EF91BF91AF919F918F917F9148
S11306106F915F914F913F912F910F900FBE0F906B
S11306201F9018951F920F920FB60F9211242F93BB
S11306303F934F935F936F937F938F939F93AF9366
S1130640BF93EF93FF93E0918800F0918900309776
S113065009F00995FF91EF91BF91AF919F918F910F
S11306607F916F915F914F913F912F910F900FBEAA
S11306700F901F9018951F920F920FB60F9211248E
S11306802F933F934F935F936F937F938F939F9396
S1130690AF93BF93EF93FF93E0918600F0918700AF
S11306A0309709F00995FF91EF91BF91AF919F9118
S11306B08F917F916F915F914F913F912F910F9007
S11306C00FBE0F901F9018951F920F920FB60F92A6
S11306D011242F933F934F935F936F937F938F9343
S11306E09F93AF93BF93EF93FF93E0918C00F091AE
S11306F08D00309709F00995FF91EF91BF91AF916B
S11307009F918F917F916F915F914F913F912F9125
S11307100F900FBE0F901F9018951F920F920FB657
S11307200F9211242F933F934F935F936F937F9373
S11307308F939F93AF93BF93EF93FF93E0919400B4
S1130740F0919500309709F00995FF91EF91BF91D1
S1130750AF919F918F917F916F915F914F913F9155
S11307602F910F900FBE0F901F9018951F920F920C
S11307700FB60F9211242F933F934F935F936F9370
S11307807F938F939F93AF93BF93EF93FF93E091E6
S11307909200F0919300309709F00995FF91EF9141
S11307A0BF91AF919F918F917F916F915F914F9185
S11307B03F912F910F900FBE0F901F9018951F928D
S11307C00F920FB60F9211242F933F934F935F9381
S11307D06F937F938F939F93AF93BF93EF93FF9305
S11307E0E0919000F0919100309709F00995FF9104
S11307F0EF91BF91AF919F918F917F916F915F9195
S11308004F913F912F910F900FBE0F901F9018950D
S11308101F920F920FB60F9211242F933F934F9371
S11308205F936F937F938F939F93AF93BF93EF9354
S1130830FF93E0918E00F0918F00309709F00995B5
S1130840FF91EF91BF91AF919F918F917F916F91A4
S11308505F914F913F912F910F900FBE0F901F907A
S113086018958BB18D7F8BB983E389B98AB1806187
S11308708AB98AB188608AB908955F9BFECF8CB12A
S113088008951F920F920FB60F9211242F933F9346
S11308904F935F936F937F938F939F93AF93BF9384
S11308A0EF93FF93E0919800F0919900309709F04D
S11308B00995FF91EF91BF91AF919F918F917F9196
S11308C06F915F914F913F912F910F900FBE0F90B9
S11308D01F9018951F920F920FB60F9211242F9309
S11308E03F934F935F936F937F938F939F93AF93B4
S11308F0BF93EF93FF93E0919600F09197003097A8
S113090009F00995FF91EF91BF91AF919F918F915C
S11309107F916F915F914F913F912F910F900FBEF7
S11309200F901F901895FF920F931F93CF93DF930F
S1130930EC010E943D040F2EF0EDFF2EF02DF80E79
S11309400E943D0410ED180F0E943D0400ED080FB5
S11309500E943D048053412F50E060E070E0762F08
S1130960652F542F44274F2910E020E030E09801F0
S113097011270027402B512B622B732B90E0A0E012
S1130980B0E0B82FAA2799278827842B952BA62B6C
S1130990B72B88839983AA83BB83DF91CF911F915F
S11309A00F91FF900895A1E21A2EAA1BBB1BFD0113
S11309B00DC0AA1FBB1FEE1FFF1FA217B307E4073A
S11309C0F50720F0A21BB30BE40BF50B661F771F92
S11309D0881F991F1A9469F7609570958095909572
S11309E09B01AC01BD01CF010895052E97FB1EF4B8
S11309F000940E940C0557FD07D00E94D30407FC05
S1130A0003D04EF40C940C055095409530952195E7
S1130A103F4F4F4F5F4F0895909580957095619526
S10F0A207F4F8F4F9F4F0895F894FFCF35
S1130A2C68656C6C6F00020000020000000000009E
S1130A3C00000000010000000000000000000000A5
S1090A4C0001000001009E
S9030000FC
