S01700004763634170706C69636174696F6E312E737265635B
S11300000C942A000C9447000C9447000C9447006D
S11300100C9447000C9447000C9447000C94470040
S11300200C9447000C9447000C9447000C94470030
S11300300C9447000C9447000C9447000C94470020
S11300400C9447000C9447000C9447000C94470010
S11300500C94470011241FBECFE5D8E0DEBFCDBF0E
S113006010E0A0E6B0E0E6EAF0E002C005900D92F0
S1130070A236B107D9F720E0A2E6B0E001C01D9294
S1130080A436B207E1F70E9449000C9451000C9485
S113009000009091610080916000890F809362005C
S10900A0FFCFF894FFCF2E
S10500A6070548
S9030000FC
